:020000040800F2
:100000007807002049020008091C0008D91A0008D6
:10001000051C0008250D0008A520000800000000B0
:100020000000000000000000000000003D1C00086F
:10003000290D000800000000391C0008711C000890
:1000400063020008630200086302000863020008FC
:1000500063020008630200086302000863020008EC
:1000600063020008630200086302000863020008DC
:1000700063020008630200086302000863020008CC
:1000800063020008630200086302000863020008BC
:1000900063020008630200086302000863020008AC
:1000A000630200086302000863020008630200089C
:1000B00063020008311D00086302000863020008A3
:1000C000630200086302000863020008630200087C
:1000D000630200086302000863020008630200086C
:1000E000630200086302000863020008630200085C
:1000F000630200086302000863020008630200084C
:10010000630200086302000863020008630200083B
:10011000630200086302000863020008630200082B
:10012000630200086302000863020008630200081B
:10013000630200086302000863020008630200080B
:1001400063020008630200086302000863020008FB
:1001500063020008630200086302000863020008EB
:1001600063020008630200086302000863020008DB
:100170006302000863020008630200080000000038
:10018000630200086302000800F002F800F04CF877
:100190000AA090E8000C82448344AAF10107DA45E2
:1001A00001D100F041F8AFF2090EBAE80F0013F0E8
:1001B000010F18BFFB1A43F001031847C82D0000B8
:1001C000E82D0000103A24BF78C878C1FAD8520749
:1001D00024BF30C830C144BF04680C6070470000C1
:1001E0000023002400250026103A28BF78C1FBD840
:1001F000520728BF30C148BF0B607047662902F024
:100200001F86642900F00081002070471FB502F0AE
:100210000AFE00F00FFC04000020002102F076FD31
:10022000E0601FBD10B510BD00F008FD1146FFF7DE
:10023000EDFF02F011F800F026FD03B4FFF7F2FF26
:1002400003BC00F067FD00000948804709480047EB
:10025000FEE7FEE7FEE7FEE7FEE7FEE7FEE7FEE776
:10026000FEE7FEE704480549054A064B70470000D3
:10027000151D00088901000878010020780700207A
:10028000780300207803002053EA020C00F0698014
:100290002DE9F04B4FF00006002B1FBFB3FA83F59A
:1002A00003FA05F424FA05F65E4012BF1643B2FACB
:1002B00082F502FA05F4C5F120051EBF22FA05FCFD
:1002C00044EA0C04203556EA044C4FEA144418BFA3
:1002D000641C4FF000084FF00009904271EB030CD2
:1002E00039D3002919BFB1FA81F701FA07F6B0FA3C
:1002F00080F700FA07F6C7F120071EBF20FA07FCB7
:1003000046EA0C062037B6FBF4FCA7EB0507103FC6
:1003100007F01F0BCBF120062CFA06F60CFA0BFBAC
:1003200044BFB3460026202FA4BF5E464FF0000B0B
:100330005BEA060C08BF4FF0010B19EB0B0948EB09
:100340000608ABFB027C06FB02CC0BFB03CCC01BFC
:1003500071EB0C01C1E70B46024641464846BDE839
:10036000F08B13B5084318BF4FF0FF300146AFF3D1
:100370000080BDE81C4070470FB41CB5074B06AAAF
:100380007B4469460090059800F03BFB00206946DD
:1003900000F04AFB1CBC5DF814FB0000A506000041
:1003A0002DE9F0410E460446002020622046E16817
:1003B000884730B3252805D0D4E901219047206A29
:1003C000401CF2E7E168204600278847050018D066
:1003D000A5F14100192802D820354FF400673246B4
:1003E000294620462760FFF709FF40B1012804D0C5
:1003F000F61D26F007060836D8E7361DD6E728464C
:10040000DAE7206ABDE8F0812DE9F04106460024D4
:1004100010687529314616A510D0AFF3008000286A
:1004200002DA404213A507E031688A0701D512A518
:1004300002E0490704D511A5012401E0AFF30080D3
:1004400000210A2206F1240709E0B0FBF2FCB0FB10
:10045000F2F302FB1C00303078541846491C002887
:10046000F3D123462A463046BDE8F04100F05CB89F
:10047000000000002D0000002B0000002000000004
:1004800010B5431C02E010F8011B71B18107FAD1CD
:100490004FF0013202C88C1A8C4314EAC211F9D011
:1004A000C01A0A0603D0C01E10BDC01A10BD0A042F
:1004B00001D0801E10BD0902FCD0401E10BD4FF0BF
:1004C000000200B5134694469646203922BFA0E8A4
:1004D0000C50A0E80C50B1F12001BFF4F7AF0907B0
:1004E00028BFA0E80C5048BF0CC05DF804EB8900A1
:1004F00028BF40F8042B08BF704748BF20F8022BE4
:1005000011F0804F18BF00F8012B704770477047FB
:10051000704710B500F092FA006810BD10B504469F
:1005200000F08CFA046010BD2DE9F0470D469946A5
:100530009246044600F124080168880604D5E06963
:1005400021F01001216000E00120A84201DD471BDD
:1005500000E00027A1697A1902EB0900081AA061DE
:100560002078C00602D42046AFF30080002608E0C1
:10057000D4E901211AF806009047206A401C761C35
:1005800020624E45F4DB2078C0060AD52046AFF342
:10059000008006E0D4E9012130209047206A401C09
:1005A0002062381EA7F10107F4DC07E0D4E901213D
:1005B00018F805009047206A401C2062281EA5F10B
:1005C0000105F3DC2046AFF300802078000602D559
:1005D0000220BDE8F0870120FBE72DE9FF4F0C4624
:1005E0001E464FF0FF378BB0D2E90001DDF8608086
:1005F0000A908A46C1F30A5505B93D4600210846CE
:100600004FF00000BAF1000F00F4400005DA00EBF3
:1006100080004FF4400101EA50004FEA9059B9F1CF
:10062000010F00DDB9460A9850EA4A000ED044F6A0
:100630001050A5F2FF3545432F14B8F1000F1ED01E
:100640007542291E1EDDC9F100021CE0B8F1010F40
:100650004FF0000001D0302103E0F24305E02154C7
:10066000401CB042FBDB30460022002121540B9994
:10067000C1F80880C1E900200FB0BDE8F08FBD1BB4
:100680006D1CDEE74A4600DA694206A800F060FA0F
:1006900006AB93E8070003AB83E8070050460A99CE
:1006A00001F088FE8DE80700A0F500501F3800908B
:1006B0000398002D0ADD42F21F014A460844002338
:1006C00003A90390684602F0F1F809E0A0F5005094
:1006D0004A461F38002303A90390684602F0FBF83E
:1006E0008DE807000004000C03D04FF0FF304108F4
:1006F00000E01046B8F1000F03D00022009215462A
:100700001EE0751E05D400F09DF9303262556D1E55
:10071000F9D5B3460122084302D000227F1C04E031
:100720002078302801D100227F1E002A099784D02A
:100730001DE0112D07DA00F085F9303262556D1C8D
:1007400050EA0102F5D1084302D00098C8B10EE08A
:100750000021681E05E0235C625C63542254401E45
:10076000491C8142F7DBAB46A81B401E09900020C4
:1007700004F80B000B98099AC0F80880C0E9002B18
:100780007AE711264FF0000857E72DE9F04F884629
:100790000446D21D22F0070191B0D1E90001CDE954
:1007A0000A0102F0CFF902460B98C00F01D02D20AC
:1007B00007E02068810701D52B2002E0202101EA13
:1007C000C000032A099001D0072A05DB03464146F1
:1007D000204600F07DF90BE12078800601D5E06924
:1007E00000E00620B8F1650F814606D0B8F1660F2B
:1007F00018D0B8F1670F70D131E00020B9F1110FB6
:10080000009001DB112301E009F101030AAA01A90B
:100810000CA8FFF7E2FEDDE90C70002609F10105E6
:10082000834647E001204B4600904FF000470AAA5C
:1008300001A90CA8FFF7D1FEDDE90DB00C995D46CA
:10084000002610B909F101000D18B9EB050003D419
:10085000C0F1FF3609F10105A5EB09002BE0B9F164
:10086000010F01DA4FF001090020B9F1110F0090DA
:10087000484601DD112300E003460AAA01A90CA89D
:10088000FFF7ABFEDDE90C704D460026834620786D
:1008900000070AD4AB4500DA5D4601A8012D04DD4E
:1008A000411911F8011C302907D04F4502DA17F120
:1008B000040F04DA012082460FE06D1EEEE7002FE0
:1008C00002DCED1B3E4403E0781CA84200DD7D1CE9
:1008D000B81B00F1010A4FF000472078000703D44D
:1008E000AA4501DB4FF0FF3A0021B7F1004F0DF1AF
:1008F00043088DF8431024D002202B23002F01DA67
:100900007F422D230A21021EA0F1010000DC5FB10D
:1009100097FBF1FC97FBF1F201FB1C7C17460CF1F5
:10092000300C08F801CDEEE7A8F101000370218832
:10093000090501D5452100E06521A0F1010800F875
:10094000011C09980FA9A1EB0807FF1D00B10120A8
:10095000411901EBEA70A1693844081A401EA061F0
:100960002078C00602D42046AFF30080099828B151
:10097000D4E901219047206A401C20622078C006FB
:1009800022D52046AFF300801EE0002E04DBB345E5
:1009900002DD01A8805D00E03020D4E9012190470C
:1009A000206A401C2062761CAAF101005FEA000A5E
:1009B0000AD100F03FF8C0680168405CD4E9012129
:1009C0009047206A401C2062281EA5F10105DCDC4E
:1009D00007E0D4E9012118F8010B9047206A401C78
:1009E0002062381EA7F10107F3DC2046AFF3008038
:1009F000032011B041E6000001694A1C0261087839
:100A0000704700B58FB0CDE901310021059105494E
:100A10007944CDE9031011466846FFF7C1FC0FB0D9
:100A200000BD0000E5FFFFFF0A6802F8010B0A6045
:100A300070470000004870473000002000487047B1
:100A40001000002030B5B0F10A0271F100034FEA46
:100A5000900E4EEA817EB0EB0E0061EB91014FEA01
:100A6000101E4EEA017E10EB0E0041EB11114FEA11
:100A7000102E4EEA016E10EB0E0041EB11214FEAF1
:100A8000104E4EEA014E10EB0E0041EB11414018A2
:100A900041F100014FEAD00040EA41704FEAD10134
:100AA0004FEA810444EA907410EB800544EB0104A2
:100AB0006D1944EB0404521BA3414FF0000348BFDF
:100AC0000A3200D530BD401C41F1000130BD0000AC
:100AD0002DE9F0411F46044603260168072A01F468
:100AE000006004DB08B116A505E016A503E008B117
:100AF00015A500E015A521F010002060A069C01E1A
:100B0000A0610FB1401EA0612046AFF300804FB13D
:100B1000D4E9012138469047206A401C2062C01C5D
:100B2000206206E0206AFAE7D4E9012115F8010BFA
:100B30009047761EF8D22046AFF30080BDE8F081E2
:100B40004E414E006E616E00494E4600696E660071
:100B50002DE9F047814616468AB0354878440DC8DD
:100B60008DE80D0032487844801C03AC0DC884E841
:100B70000D0041F69B300844372190FBF1F290FBC9
:100B8000F1F5A5F1800501FB12041B3C02D564427E
:100B9000012000E00020DFF898A080460027FA44FA
:100BA000AAF1BE0A0EE0E0070AD03246684607EB1B
:100BB000470101230AEB810101F08DFE8DE807005A
:100BC00064107F1C002CEED1194F7F44AE3F19E01A
:100BD000E80715D007EB04100DF1180A90E80E0095
:100BE0008AE80E00C068F04201D198190890324698
:100BF000012306A903A801F06EFE03AB83E80700FA
:100C00006D10641C002DE3D14FF00103324669469C
:100C1000B8F1000F03A802D001F048FE01E001F096
:100C20005AFEC9E90001C9F808200AB0BDE8F087FA
:100C3000A023000000487047100000207546FFF711
:100C4000F9FFAE4605006946534620F00700854689
:100C500018B020B5FFF706FBBDE820404FF00006B6
:100C60004FF000074FF000084FF0000BAC46ACE827
:100C7000C009ACE8C009ACE8C009ACE8C00921F083
:100C800007018D46704710B50446AFF3008020463B
:100C9000BDE81040FFF7D1BA30B44FF0013C50F836
:100CA000042B51F8043BCCFA52F4D51A20D1FCB9EC
:100CB00050F8042B51F8043BCCFA52F4D51A17D152
:100CC000B4B950F8042B51F8043BCCFA52F4D51ABD
:100CD0000ED16CB950F8042B51F8043BCCFA52F405
:100CE000D51A05D1002CDAD030BC4FF00000704787
:100CF00029BAB1FA81F111F01801D1F12000844034
:100D0000F2D1CA40CB4012F0FF0213F0FF0330BC17
:100D1000D01A704701491820ABBEFEE7260002003A
:100D200070470000FEE7000070470000EFF31080FE
:100D300072B600BFFEE700002DE9F04F83B000F16E
:100D40003E4202F1FF7243F6004E4FEAB22241F6F4
:100D50000047C4F2010E0192C4F2020708224FF0CC
:100D6000010B00254FF000084FF00009B84208BF02
:100D7000072200920AE000BF09F1010908F1040806
:100D8000B9F1100F05F1020500F0A1800F680BFA10
:100D900009F417EA040CEFD0D1F804A0BAF1120F4D
:100DA00015D80BFA0AF717F0061F10D08768032230
:100DB000CE68AA4027EA0202AE403243826042680F
:100DC000A243CAF3001404FA09F422434260C26841
:100DD00003238E6803FA05F4A2436FEA040B06FAB4
:100DE00005F422434AF01004122CC2600FD16FF0B8
:100DF000030202EA5902024408F01C060F23146A97
:100E000003FA06F70B69BC43B3402343136202683D
:100E10004B6802EA0B0203F00304AC402243DB0000
:100E20004FF0010B0260A7D5002243F64403029263
:100E3000C4F202031A684FF6084A42F480421A606C
:100E40001A68CFF6FF7A02F480420292029A29F0E1
:100E50000302724452F80A3008F00C040F26A64030
:100E6000019FB343009E072F38BF3E4606FA04F4A5
:100E7000234342F80A30DEF800204B6842EA0C04B3
:100E8000DE0358BF22EA0C04CEF80040DEF804204E
:100E90009E0342EA0C0458BF22EA0C04CEF8044038
:100EA000DEF80820DE0242EA0C0458BF22EA0C04F5
:100EB000CEF8084043F60C44C4F2010422689B02B9
:100EC00042EA0C0358BF22EA0C03236054E703B044
:100ED000BDE8F08F002A08BF090481617047000057
:100EE00040F27010C2F200000068704740F2040047
:100EF00040F27011C2F20000C2F2000100780A68EC
:100F0000104408607047000080B543F60040C4F20A
:100F10000200016841F400710160016841F48061E0
:100F20000160032000F060F80F2000F005F800F0E9
:100F30002BF8002080BD0000B0B540F20402C2F2E0
:100F4000000240F200011278C2F200014FF47A73FD
:100F50000968B3FBF2F20446B1FBF2F1084600F077
:100F600009FB0F2C4FF001050CD858B94FF0FF309A
:100F700021460022002500F027F840F20800C2F2C6
:100F8000000004602846B0BD82B0002043F6400156
:100F90000190C4F202014A6842F480424A604A6801
:100FA00002F480420192019A0090086840F080505B
:100FB0000860086800F080500090009802B0704708
:100FC00080B501F071F880BD70B514460D46064637
:100FD00001F07AF82946224600F018FE0146304614
:100FE00001F07AF870BD000080B501F087F880BD8F
:100FF0004EF61050CEF200000268012922F00402E1
:1010000002600FBF30BF40BF20BF20BF704700004D
:101010002DE9F041002800F08B8043F60808C4F267
:1010200002080446D8F8F8030D4600F00F00884285
:1010300007D288F8F853D8F8F80300F00F00A84258
:1010400076D12068810717D5410705D5D8F800105B
:1010500041F4E051C8F80010010705D5D8F8001098
:1010600041F46041C8F80010D8F80010A26821F0DF
:10107000F0011143C8F80010C0073FD1D8F8F803B9
:1010800000F00F00A84207D988F8F853D8F8F80301
:1010900000F00F00A8424BD12068410707D5D8F8CF
:1010A0000010E26821F4E0511143C8F80010000775
:1010B00008D5D8F80000216920F4604040EAC1005A
:1010C000C8F8000000F07EF8D8F8001042F6187258
:1010D000C1F30311C0F60002515C40F2000220FA95
:1010E00001F140F20800C2F200000068C2F2000202
:1010F0001160FFF721FF0020BDE8F0816068811ECC
:10110000022907D258F8081C89015CBF0120BDE8FC
:10111000F08110E0012807D158F8081C89035CBF52
:101120000120BDE8F08106E058F8081C890702D4C8
:101130000120BDE8F081D8F8001021F00301084338
:10114000C8F80000FFF7CCFE064641F2883700BF22
:10115000D8F80000616800F00C00B0EB810F8DD072
:10116000FFF7BEFE801BB842F2D90320BDE8F08134
:1011700040F20000C2F200000068704780B5FFF73F
:10118000F7FF43F60801C4F20201096842F628722B
:10119000C1F38221C0F60002515CC84080BD00004E
:1011A00080B5FFF7E5FF43F60801C4F202010968C4
:1011B00042F62872C1F34231C0F60002515CC840C9
:1011C00080BD000010B543F60404C4F20204606858
:1011D00000F00C0008280AD0042819BF42F2004091
:1011E000C0F2F40047F64000C0F27D1010BD206848
:1011F00021682368490247F64001C0F27D1100F0E2
:101200003F02C3F388105CBF42F20041C0F2F40118
:10121000A1FB00010023FFF737F821680222C1F388
:10122000014102EB4101B0FBF1F010BD2DE9F041AD
:1012300082B0002800F098800446007843F600064B
:10124000C007C4F2020643D0B06800F00C000428C6
:1012500005D1306880033BD56068C8BB84E0B068C6
:1012600000F00C00082802D170684002F1D46568D3
:10127000B5F5A02F0AD0B5F5803F0BD0306820F42B
:1012800080303060306820F4802006E0306840F420
:1012900080203060306840F480303060FFF720FEFE
:1012A000002D054611D000BF3068800310D4FFF731
:1012B00017FE401B6428F7D918E100BFFFF710FEA6
:1012C000401B64284FF003004BD830688003F5D4EE
:1012D0002078800719D5B06810F00C0F08D0B068DE
:1012E00000F00C00082840F08080706840027CD438
:1012F0003068800702D5E068012835D1306821695F
:1013000020F0F80040EAC1003060207800072FD4B8
:101310002078400743D4A56915B3B06800F00C00ED
:10132000082840F09580012D1ED07068E16900F416
:1013300080028A4218D1216A00F03F028A4213D10A
:1013400047F6C071626A014091420DD1A16A00F472
:1013500040328A4208D1E16A00F07060884203D1CD
:10136000002002B0BDE8F081012002B0BDE8F081AC
:101370006069002840F20000C4F2472057D00121E4
:10138000C0F8801EFFF7ACFD054600BF706F8007F8
:10139000BED4FFF7A5FD401B0228F7D9A6E0306CAC
:1013A00010F080580AD100200190306C40F080503D
:1013B0003064306C00F080500190019847F20007D3
:1013C000C4F200073868C00524D4386840F480703F
:1013D0003860FFF785FD05463868C0051AD4FFF769
:1013E0007FFD401B0228F7D980E0E068002851D03B
:1013F0000020C4F2472001210160FFF771FD05467E
:10140000306880073FF57AAFFFF76AFD401B02287E
:10141000F6D96BE0A568052D50D0012D52D0306F64
:1014200020F001003067306F20F004004DE0002113
:10143000C0F8801EFFF754FD054600BF706F80079F
:101440007FF566AFFFF74CFD401B0228F6D94DE053
:101450000027C4F2472700203866FFF741FD022D20
:1014600005460BD13068800158D5FFF739FD401B88
:1014700002284FF00300F5D973E700BF3068800100
:101480007FF56EAFFFF72CFD401B02284FF00300E5
:10149000F4D966E70020C4F2472000210160FFF77D
:1014A0001FFD0546306880077FF52FAFFFF718FD59
:1014B000401B02284FF00300F4D952E7306F40F090
:1014C00004003067306F40F001003067FFF708FD1F
:1014D000002D054641F2883714D000BF306F8007D9
:1014E00013D4FFF7FDFC401BB842F7D9032002B02C
:1014F000BDE8F081FFF7F4FC401BB8424FF0030059
:101500003FF62FAF306F8007F4D4B8F1000F7FF4AF
:1015100002AF306C20F080503064FCE604F11C0512
:101520002FCD084340EA8210D9034FF6FF72914352
:10153000A1F5803140EA05600843706001203866FB
:10154000FFF7CEFC044600BF306880013FF508AFCE
:10155000FFF7C6FC001B02284FF00300F4D900E798
:101560004EF21000CEF20000016841F0020101606D
:101570007047000080B500F063FB80BD4EF21000A4
:10158000CEF20000016821F0020101607047000006
:10159000704700007047000010B590F83C20012A09
:1015A0004FF0020252D0012380F83C3080F83D20F9
:1015B0000268D2F804E0D2F808C00C682EF070037C
:1015C000234341F2FF74C4F20004A24253600DDCD5
:1015D00040F2FF73C4F200039A4215DCB2F1804F6F
:1015E00029D040F20043C4F2000322E040F2FF336E
:1015F000C4F201039A4212DC41F60003C4F2000374
:101600009A4218D0002312E040F60003C4F200030F
:101610009A4210D040F60043C4F2000309E044F2BD
:101620000003C4F201039A4205D040F20043C4F221
:1016300001039A4204D149682CF080031943916058
:101640000121002280F83D1080F83C20104610BD9A
:10165000002804BF0120704710B5044690F83D00F3
:1016600028B9002084F83C00204600F00DF8022044
:1016700084F83D002068211D00F062FB012084F801
:101680003D00002010BD000080B582B0006840F22F
:101690000041C4F20001884201D002B080BD0020A8
:1016A000019043F64000C4F202000168002241F0BC
:1016B000020101600068002100F002000190019821
:1016C0001D20FFF781FC1D20FFF77AFC02B080BDD2
:1016D0000068C16841F00101C160816801F0070143
:1016E000062903D0016841F0010101600020704724
:1016F00010B5044690F83C0001284FF0020008BFE6
:1017000010BD012284F83C2084F83D0020684FF68B
:10171000777382689A4382600A683F2A14DD5F2AE1
:1017200018DD602A28D0B2F5005F2DD0702A40D194
:10173000D1E9012CCB68614600F094FB20688168F8
:1017400041F07701816034E01F2A0FDC92B1102A4A
:1017500010D02EE0402A23D0502A2AD14B68CA68E4
:10176000194600F093FB2068502120E0202A01D088
:10177000302A1ED111461AE04B68CA68194600F09B
:1017800097FB2068602112E0D1E9012CCB6861460B
:1017900000F068FB2068816841F48041816008E0C6
:1017A0004B68CA68194600F071FB2068402100F0C0
:1017B00065FB012084F83D00002084F83C0010BD4A
:1017C0007047000010B5044600680169890744BFEE
:1017D000C1685FEA817138D420680169490744BF54
:1017E000C1685FEA41713CD420680169090744BFC0
:1017F000C1685FEA017141D420680169C90644BF2C
:10180000C1685FEAC16145D420680169C9071CBF8E
:10181000C1685FEAC1714AD120680169090644BF05
:10182000C1685FEA016149D420680169490644BF83
:10183000C1685FEA416148D420680169890644BFF4
:10184000C1685FEA816147D410BD6FF00201016198
:10185000012121778069800745D02046FFF7B0FF3E
:1018600047E06FF00401016102212177806910F4E3
:10187000407F41D02046FFF7A3FF43E06FF008010F
:10188000016104212177C06980073ED02046FFF71F
:1018900097FF40E06FF01001016108212177C069D6
:1018A00010F4407F3AD02046FFF78AFF3CE06FF00B
:1018B00001010161204600F03FF8ADE76FF08001C3
:1018C00001612046FFF764FEAEE76FF04001016161
:1018D000204600F033F8AFE76FF0200101612046A9
:1018E000FFF758FE10BD204600F022F8204600F019
:1018F00021F8002020776FE7204600F019F82046F5
:1019000000F018F8002020776EE7204600F010F86D
:10191000204600F00FF8002020776DE7204600F009
:1019200007F8204600F006F8002020776CE700005A
:1019300070470000704700007047000070470000CB
:10194000002804BF0120704710B5044690F8390004
:1019500028B9002084F83800204600F021F824201F
:1019600084F839002068C16821F40051C160204624
:1019700000F0B0FA2068016921F4904101614169E9
:1019800021F02A014161C16841F40051C160002089
:101990002021E06384F8391084F83A1010BD00006B
:1019A00080B586B000220592CDE9032244F60001FD
:1019B0000068C4F2000188420292019201D006B090
:1019C00080BD43F630000092C4F20200036943F484
:1019D00080230361036903F480230093009B00923A
:1019E000036843F008030360006800F008000090FB
:1019F00000984FF4407001900220CDE902020320CC
:101A000004900720059001F5E23001A9FFF794F951
:101A100006B080BD2DE9F041044690F83900202839
:101A20000DD10E4600294FF0010052D01746002A72
:101A300008BFBDE8F08194F83800012802D10220E7
:101A4000BDE8F081012084F838004FF00008212023
:101A50001D46C4F83C8084F83900FFF741FAA7849A
:101A6000E78484F83880E18C804661B920464021C3
:101A700042462B4600F0E4FA38B30320BDE8F0817B
:101A8000E08C0028F2D0E08C80210138E084A76847
:101A9000204642462B4600F0D3FAB7F5805F0DD1C1
:101AA0000028EAD13088216922686FF35F2000297D
:101AB000506014BF01360236E2E700BF0028DCD1D7
:101AC00016F8010B21684860DAE7202084F8390015
:101AD0000020BDE8F0810000FEE7000070B586B090
:101AE000002543F630000595CDE90355CDE90155B4
:101AF0000095C4F20200016840F6004441F008017C
:101B000001600068C4F2020400F008000090009830
:101B100020464FF4704100224FF47046FFF7DAF987
:101B200001200196CDE9020501A920460495FFF7A1
:101B300003F906B070BD000080B586B040F28800A1
:101B400040F200420021C2F20000C4F2000241F261
:101B500087334FF0640CCDE90411CDE90211CDE9D2
:101B60000011C0E90023C0E9021C01618161FFF797
:101B70006FFDC0B94FF48050029040F28800C2F26D
:101B8000000002A9FFF7B4FD68B90020CDE900000C
:101B900040F28800C2F200006946FFF7FDFC002811
:101BA00004BF06B080BDFFF7C1F8000080B540F269
:101BB000C80044F60001C2F20000C4F20001002394
:101BC0004FF00C0C4FF4E13280E80E00C0E9033313
:101BD000C0E905C3C361FFF7B3FE48B940F2C800CE
:101BE000C2F2000003A10F220123FFF713FF80BD03
:101BF000FFF79CF8554152542052454144590A0D73
:101C000000000000FEE70000FEE7000000F0070013
:101C100080F00703042B28BF04234FF0FF3C033858
:101C20000CFA03F338BF0020994381400CFA00F00E
:101C300022EA000008437047704700007047000028
:101C4000B0B501380024B4EB106F1CBF0120B0BD4B
:101C50004EF21005CEF2000568604FF0FF300F2104
:101C600000F03AFA0720AC6028602046B0BD0000C2
:101C700080B5FFF73BF980BD70B592B006AC204649
:101C80003021FEF71CFC002543F640000595CDE908
:101C90000355CDE901550095C4F202000168022602
:101CA00041F080510160006800F080500090009881
:101CB00047F200000095C4F20000016841F4804141
:101CC0000160006800F480400090009801200990B5
:101CD00010200A9008200696CDE90C650E9032205F
:101CE000CDE90F06042011902046FFF79FFA78B93E
:101CF0000F20CDE901064FF480500395CDE904058E
:101D000001A80121FFF784F9002804BF12B070BDBB
:101D1000FFF70CF84EF68850CEF20000016841F44F
:101D2000700101604FF0006140F8801C70470000B6
:101D300080B540F28800C2F20000FFF743FD80BD8D
:101D400010B540F6FF3E0368C4F2000E40F2004CAE
:101D50007045C4F2010C0FDCB0F1804F19D040F295
:101D60000042C4F20002904213D040F60002C4F2D6
:101D7000000290420DD010E040F60042C4F2000292
:101D8000904206D0604504D00022C4F20102904285
:101D900003D14A6823F07003134341F6FF72C4F283
:101DA000000290420DDC70451FDCB0F1804F41D045
:101DB00040F20042C4F2000290423BD040F60002E2
:101DC00021E043F6FF72C4F20102904220DC42F2AD
:101DD0000002C4F2000290422CD00022C4F20102A0
:101DE000904227D0604525D028E040F60042C4F25A
:101DF000000290421ED041F60002C4F2000290425E
:101E000018D041F60042C4F20002904212D015E010
:101E100044F20002C4F2010290420BD044F60002E8
:101E2000C4F20102904205D044F20042C4F2010221
:101E3000904203D1CA6823F44073134323F0800215
:101E40004B69D1F800E08C681A430260C46240F428
:101E50008062C0F828E0624504BF0969016301217E
:101E6000416110BDD0F808C011432CF47F4C41EA09
:101E7000032141EA0C01816070470000826822F072
:101E80007002114341F0070181607047D0F820C013
:101E9000036A23F001030362836923F0F00343EA3A
:101EA00002122CF00A03194382610162704700009C
:101EB000036A23F0100303628369D0F820C023F47F
:101EC000704343EA02322CF0A00343EA011182611D
:101ED00001627047B0B50546006805F108030ECBF6
:101EE0000469194324F44054224302616A69EB698E
:101EF0001143C26849F20C641943A2431143C16003
:101F00004169AA6921F440711143416141F20041E4
:101F1000B3F5004F40F48060C4F2010124D188423F
:101F200046D1FFF73DF96B681921A0FB01015A006A
:101F3000DB0FFEF7A9F948F21F51C5F2EB11A0FB28
:101F400001235A096FF0630302FB0300322303EB02
:101F5000C000A0FB01014FF4F87000EA111000EB83
:101F60000210C1F3421167E0884244D1FFF718F92B
:101F70006B681921A0FB01019A009B0FFEF784F901
:101F800048F21F51C5F2EB11A0FB01235A096FF073
:101F9000630302FB0300322303EB0010A0FB0101EB
:101FA000F02000EA511000EB0210C1F3431143E0AE
:101FB000FFF7E4F86B681921A0FB01015A00DB0F61
:101FC000FEF762F948F21F51C5F2EB11A0FB0123A5
:101FD0005A096FF0630302FB0300322303EBC000D6
:101FE000A0FB01014FF4F87000EA111000EB0210A1
:101FF000C1F3421120E0FFF7C1F86B681921A0FB83
:1020000001019A009B0FFEF73FF948F21F51C5F2FC
:10201000EB11A0FB01235A096FF0630302FB0300DD
:10202000322303EB0010A0FB0101F02000EA511065
:1020300000EB0210C1F343112A6808439060B0BD61
:102040002DE9F0410446006800680840884202D14A
:102050000020BDE8F0811D460E4690465F1C04E05E
:10206000206800683040B042F2D0002FF8D02DB187
:10207000FEF736FFA0EB0800A842F1D92068C1683E
:1020800021F4D071C160416921F00101416120203A
:1020900084F8390084F83A00002084F838000320DE
:1020A000BDE8F081FEE70000002848BF704700F05F
:1020B0001F01012202FA01F14EF200124009CEF294
:1020C000000242F8201070474EF60C50CEF200008D
:1020D0000068C0F3022070474EF6145300F00F0260
:1020E000CEF2000309011A4400F16043B0F1FF3F52
:1020F000C8BF03F564421170704700004EF60C51E2
:10210000CEF200010A684FF6FF031A4060F30A227C
:1021100042F0806040F0FD70086070472DE9F04F9C
:1021200081B02DED0C8B86B044680092002C60D0FD
:10213000D0E9028906699FED358A9FED35AADDF861
:1021400000B00546081F0027BEEE009A019015E07A
:10215000B0EE48CAB0EE48BA2CEE090A2BEE091AC6
:1021600030EE01BAB6EC010A00F004FD6C683BEEFB
:10217000000A0137ABEC010AA7423AD228680028CE
:10218000E6D0DDF804A0CDE90267A9F10400A8F1CA
:1021900004060024B0EE48BAB0EE48CA90ED010A39
:1021A00095ED051A0AF1040930EE01DA2DEE0A0A5E
:1021B000071D06F1040800F0DDFC9AED011A96ED0A
:1021C000012A286831EE421A21EE011A81EE0D1A19
:1021D00001343CEE00CA844246463846CA463BEECD
:1021E00001BADBD307F10409DDE9026708F104084D
:1021F000B2E7009805AA04AB214600F00BF804985A
:1022000006B0BDEC0C8B01B0BDE8F08F0000000003
:10221000DB0FC94080B590ED000A012914D0A0F170
:10222000040E4FF0000C01209EED021A0EF1040E78
:10223000B4EE410AF1EE10FABCBFB0EE410A84469A
:1022400001308142F0D101E04FF0000C82ED000A34
:10225000C3F800C080BD000088B0FEF755FEFFF750
:102260000BFDFFF73BFCFFF767FCFFF79FFC40F21D
:102270008800C2F20000FFF72BFA4FF07E50069064
:10228000002040F270060790C2F20006022042F6DB
:102290007471C6E9000006F1080040F20C1540F226
:1022A000C80440F2081642F6487942F6607AC0F651
:1022B000000142F6387242F630734BF64B37C2F2E9
:1022C0000005C2F20004C2F20006C0F60009C0F622
:1022D000000AC0F60002C0F60003C3F23E078EC03B
:1022E00040F2700004AFC2F2000006A93A46FFF7C0
:1022F00015FF3846022103AA02ABFFF78BFFDDE989
:10230000060B00F01FFD07465846884600F01AFDF0
:1023100041EC100B28461BA13A4643468DED000BBD
:10232000FEF72AF82846FEF7ABF882B22046294687
:102330006423FFF76FFB029A284618A1FEF71CF8EA
:102340002846FEF79DF882B2204629466423FFF70F
:1023500061FB2046494617226423C6F80090FFF728
:1023600059FBFFF70BF900200121FEF741FEFFF7B3
:10237000F7F82046514613226423C6F800A0FFF761
:1023800049FBADE7496E7075742056616C75652028
:102390003D2025662C202566200A0D0050726564BC
:1023A00069637465642056616C7565203D20256401
:1023B0000A0D00005FEA400C08BF91F0000F4FEAE1
:1023C0008C234FEAC12243EA51514FEA1C5018BFF7
:1023D00000F5F0404FEA300018BF41F000415FEADD
:1023E0006C5C00F02980BCF1FF3F08BF40F08040EA
:1023F0007047130C06BF12044FF0100C4FF0000C86
:10240000130E04BF12020CF1080C130F04BF1201CB
:102410000CF1040C930F04BF92000CF1020CD30FCB
:1024200004BF52000CF1010C11464FF00002A0F164
:102430001F00A0EB0C00704711F0004F08BF704761
:1024400031F000413FF4D5AF0B0C06BF09044FF04B
:10245000100C4FF0000C0B0E04BF09020CF1080C1D
:102460000B0F04BF09010CF1040C8B0F04BF890092
:102470000CF1020CCB0F04BF49000CF1010CCCF1A4
:10248000200322FA03F341EA030102FA0CF2A0EB63
:102490000C0000F10100704723F07F4720F07F4CD3
:1024A00080EA030000F00040ACEB070303F57C5327
:1024B00003F1FF032DE9804909B44FEA144324EAEC
:1024C00003484FEA154B25EA0B4E0FF2042606EBA4
:1024D00013273E7803FB0667C7F5000707FB06F6E0
:1024E0004FEAD64606F102064FEA543707FB066C60
:1024F000CCF1005C4FEA1C472CEA074C0CFB06F5BC
:1025000007FB06F404EB15464FEA961649085FEA06
:10251000320234BF00204FF000404FEAD13706FBB3
:1025200007FC4FEA1C4C0CFB0BF7D21B03FB0CF710
:1025300061EB07010CFB0EF7B0EB074072EB1742A3
:102540000CFB08F734BFA2EB0742B2EB074261EB8A
:1025500017414FEA0C444FEA910706FB07FC4FEA8C
:102560001C4C0CFB0BF7B0EBC74072EB573203FB74
:102570000CF734BFA2EBC742B2EBC74261EB573155
:102580000CFB0EF7B0EBC70072EB57720CFB08F7B1
:1025900034BFA2EBC702B2EBC70261EB57714FEA3F
:1025A000816141EA92114FEA826242EA90124FEA57
:1025B000806004EBCC04039F4FEAD13706FB07FC95
:1025C0004FEA1C4C0CFB0BF7D21B03FB0CF761EB27
:1025D00007010CFB0EF7B0EB074072EB17420CFB48
:1025E00008F734BFA2EB0742B2EB074261EB174199
:1025F0004FEA8C5504EB9C244FEA910706FB07FC3D
:102600004FEA1C4C0CFB0BF7B0EBC74072EB573298
:1026100003FB0CF734BFA2EBC742B2EBC74261EB3E
:1026200057310CFB0EF7B0EBC70072EB57720CFB87
:1026300008F734BFA2EBC702B2EBC70261EB5771D8
:102640004FEA816141EA92114FEA826242EA9012B6
:102650004FEA806015EB4C2544F100044FEAD13776
:1026600006FB07FC4FEA1C4C0CFB0BF7D21B03FBD1
:102670000CF761EB07010CFB0EF7B0EB074072EBB8
:1026800017420CFB08F734BFA2EB0742B2EB07423C
:1026900061EB17414FEA813141EA92414FEA8232C0
:1026A00042EA90424FEA80304FEA0C7615EB1C1557
:1026B00044F1000448EA03434EEA0B484FF0000E91
:1026C000B2EB080C71EB030724BF624639464EEBB0
:1026D0000E0E4FF0000B0018524149414BEB0B0B13
:1026E000B2EB080C71EB03077BF1000B24BF6246D1
:1026F00039464EEB0E0E4FF0000B00185241494187
:102700004BEB0B0BB2EB080C71EB03077BF1000BEF
:1027100024BF624639464EEB0E0E51EA020718BF3F
:1027200046F0010616EB0E7655F1000254F1000159
:1027300003D5BDE88901BDE80088BDE88901BDE891
:102740000048B619524141EB0101A3F10103704762
:1027500080807F7E7D7C7B7A7978777676757473DE
:10276000727171706F6E6E6D6C6C6B6A6A6968689D
:10277000676666656464636362616160605F5F5E33
:102780005E5D5D5C5C5B5B5A5A59595858575756A9
:10279000565555555454535352525251515050500E
:1027A0004F4F4F4E4E4D4D4D4C4C4C4B4B4B4A4A60
:1027B0004A494949484848474747474646464545A4
:1027C00045444444444343434342424242414141DD
:1027D0009C46002B30D477002BD04FEA37071CB52E
:1027E00003B44FF010004FF01001BAF1000F06D003
:1027F000BCF1000FDCBF40F0080040F008014FF0D2
:1028000000000FBCBDE810400BF1010BBBF1010F44
:1028100008BF5FEA170722BF12F1010211F101019F
:102820004FF0004143F1000300F0004043EA000094
:102830007047F9D35708D0E746EA06464FEA1646EE
:1028400013F1400F1FDD13F1200FDFBF16430A46BF
:10285000002120335B42BED0C3F1200746EA064682
:102860004FEA164602FA07F746EA070622FA03F28B
:10287000C3F1200701FA07F742EA070221FA03F140
:102880004FF00003A7E746EA020646EA06464FEA8B
:10289000164646EA0106BCBF46EA0646360C4FF02D
:1028A00000034FF000024FF0000194E72DE9804C47
:1028B00070B49A46934691E8380007C831EA400C54
:1028C00048BF34EA430C03D5FFF7E6FDFFF780FF6E
:1028D000F0BCBDE8008C2DE9804C70B49A4693465C
:1028E00091E8380007C810F0804F08BF13F0804F00
:1028F00003D100F005F8FFF76BFFF0BCBDE8008CDA
:1029000020F07F4723F07F4C80EA030000F0004076
:1029100007EB0C03A3F57C53A3F1FE0392F0000F29
:1029200000F0B38095F0000F00F077802DE90149A9
:102930004FEA114021EA00484FEA144624EA0647CC
:1029400000FB06FC08FB06F607FB08F818EB064838
:102950004CEB164C00FB07F718EB07484CEB174005
:102960004FEA124B22EA0B4E4FEA154625EA06477C
:102970000BFB06FC0EFB06F607FB0EFE1EEB064EDF
:102980004CEB164C0BFB07F71EEB074E4CEB174BB3
:1029900018EB0B0840F1000018EB0E0B58EB000889
:1029A00040F100008F1A4FF000014FF000063CBFCD
:1029B000C943661B14BFB5EB040C00213CBFC943DF
:1029C000F61B4FEA174427EA04454FEA1C472CEA56
:1029D000074C04FB076205FB07F70CFB05F616EB3B
:1029E000074642EB174204FB0CFC16EB0C4642EB8D
:1029F0001C421BEB060658EB020241414EEA8E0ECA
:102A000046EA9E0601D5BDE80189B619524141EB5F
:102A10000101A3F10103BDE801894FEA144524EA4D
:102A200005464FEA114721EA074C05FB07F406FB70
:102A300007F70CFB06F111EB074144EB174405FBCC
:102A40000CFC11EB0C4144EB1C444FEA124722EA08
:102A5000074C05FB07F206FB07F70CFB06F616EB27
:102A6000074642EB174205FB0CFC16EB0C4642EB0B
:102A70001C456A1854F1000148BF7047B61952410D
:102A800041EB0101A3F10103704795F0000F37D02E
:102A90004FEA114221EA02464FEA144724EA074C62
:102AA00002FB07F106FB07F70CFB06F414EB0744E7
:102AB00041EB174102FB0CFC14EB0C4441EB1C41B5
:102AC0004FEA154725EA074C02FB07F506FB07F717
:102AD0000CFB06F616EB074645EB174502FB0CFC14
:102AE00016EB0C4645EB1C42121951F1000148BF90
:102AF0007047B619524141EB0101A3F10103704740
:102B00004FEA144524EA05464FEA114721EA074CEB
:102B100005FB07F106FB07F70CFB06F212EB074279
:102B200041EB174105FB0CFC12EB0C4251EB1C4135
:102B30004FF0000648BF7047921841EB0101A3F126
:102B40000103704703B401984100009850EAC12086
:102B500018BF04204A0D18BF40F0010040F2FF7278
:102B6000B2EB515F08BF40F00200012808BF05200A
:102B700002B0704710EE100A10B50023A0F5000156
:102B8000B1F1FE4F67D200BF00F500216FF07E0269
:102B900002EBE15CC1F302524FF07E5101EB0251B6
:102BA00000EE901AA0EBCC5003EB0C0100EE100AE3
:102BB00051EA020036D030EE601A70EE200A9FED26
:102BC0003D2A3E4881EE200A9FED3B1A60EE000A46
:102BD00000EE821A60EE201A61EE810A784401EE5E
:102BE000101A00EB82009FED362AB8EEC11AD0ED24
:102BF000001A344841EE021A784401EE101A00EB34
:102C00008200B8EEC11A90ED002ADFED2F2A01EE06
:102C1000222AB0EE001A72EE200A40EE010A31EECE
:102C2000A00A10BDF7EE000A9FED291A30EE600AE7
:102C3000DFED260A00EE201ADFED260A60EE001A0C
:102C400040EE010A9FED241A00EE201A61EE810A7F
:102C500030EE200A10BD4FF07F41B1EB400F03D2A0
:102C6000BDE8104000F046B8B0F1FF4F08BF10BDFE
:102C7000B5EEC00AF1EE10FA06D20120FDF74EFCC7
:102C8000BDE8104000F03AB8B5EEC00AF1EE10FA17
:102C900007D10220FDF742FC00F022F8B1EE400A15
:102CA00010BDDFED0E0A6FF0160320EE200A10EEC5
:102CB000100A69E766F1CC3EAAAA2A3F6402000026
:102CC0000070313F68020000F4FD053821ED423EFE
:102CD0000A1180BEC1ABAA3EFFFFFFBE0000004B41
:102CE000DFED030AB7EE001A81EE200A70470000FC
:102CF0000000000030EE000A70470000DFED020A1D
:102D000080EEA00A704700000000000010B5002906
:102D10000AD00878002807D005487844FDF7BCFFA2
:102D2000002801D0002010BD0248784410BD0000EA
:102D30008A020000820200000808A0F500114FEA94
:102D40003101704743004FEAD30C4FEA3C0C43403B
:102D50001FBF40070CF1605113F0FE4F70471CF08D
:102D6000006F03D10CF00041002070470CF00043CD
:102D700043EA507040EACC0010B500F00EF800BFF6
:102D8000000000924FEA0001FFF7D6BF4FF000416C
:102D9000A1F500214FF0000070470EF1020E2EF059
:102DA000030E5EF8044B244204D44FEA4102B2F110
:102DB0007F4F11D84FEA4003B3F17F4F0CD80ED1AB
:102DC0004FEAD07C0CEB4C0C0CF1020CB2F17F4FB3
:102DD00008BF4CEBD17C04E04FF0080C01E04FEA57
:102DE000D17C0CEB4C0324FA03F404F00704B4F197
:102DF000040C06D20EEB840CBDE810404CF0010C24
:102E00006047DFE80CF0070802024FF00040A0F531
:102E1000800010BD0846420018BFD2F1807288BF02
:102E200000F0004010BDF1EE100A4FF6FF71C0F245
:102E3000C03120EA010040F04070E1EE100A704716
:102E4000FDF7A3BC000000000030F13D0070643EBF
:102E50000000A33E0090CF3E0090F83E00400F3FA0
:102E600000E0203F0000000015B78337CDE37B383A
:102E70000EE1C53860F69138AF5F0F38E1BC3E38DF
:102E800023F4473902400000000000A000000000C9
:102E900005400000000000C8000000000C400000D9
:102EA0000000409C00000000194000000020BCBE53
:102EB0000000000034400000BFC91B8E0000000469
:102EC000B5400000504BCFD06607E2CF01000000B4
:102ED0006C4100003E8251AADFEEA73401000000E1
:102EE000D9420000DCB5A0E23A301F97FFFFFFFF98
:102EF000B4450000FD25A0C8E9A3C14FFFFFFFFFB7
:102F0000FF3F00000000008000000000FF3F0000C5
:102F10000000008000000000000000000000000031
:102F2000010203040607080900000000010203046F
:102F30006EDBB63E4992243F8FC2753E295C0F3F3F
:102F400052061E3F5CF3433F456E746572696E67BF
:102F500020736C656570206D6F64650A0D0A0D0045
:102F600057616B6575702066726F6D20536C656577
:102F7000700A0D00CDCCCC3F9A99993F721C473F07
:102F8000E4388E3FC02F0008000000201000000031
:102F9000C4010008D02F00081000002068070000BE
:102FA000E00100081C00000043000000F8FFFFFFE4
:102FB0000C0000000E0000000F0000002E000000BA
:102FC0000024F400010000001000000000000000D8
:040000050800018965
:00000001FF
